:03000000020026D5
:0C002600787FE4F6D8FD75811502006DAE
:1000030068656C6C6F20776F726C640D0A00D6D0D4
:0D001300CEC4D7D6B7FBB2E2CAD40D0A00A6
:10014B000E0868656C6C6F20776F726C640D0A001B
:1000FF0053877F75985053890F438920758BFD75F2
:0B010F008DFDC2ABD28ED2ACD2AF226D
:10013300ED601412011AF5993099FDC299740129E1
:08014300F9E43AFA1D80E922FB
:10015C001200FF7B007A0079087D0E12013380FEBD
:030023000200B226
:1000B200C0E0C083C082C0D075D000C001C002C001
:0500C20003C005C007AA
:1000C700309822AF99EF6401700CC2A07BFF7A00D1
:1000D70079037D0E800AD2A07BFF7A0079117D0F0C
:0500E700120133C29874
:1000EC00D007D005D003D002D001D0D0D082D0839D
:0300FC00D0E0321F
:1000320002015CE493A3F8E493A34003F68001F287
:1000420008DFF48029E493A3F85407240CC8C333CF
:10005200C4540F4420C8834004F456800146F6DF9E
:10006200E4800B010204081020408090014BE47EE2
:10007200019360BCA3FF543F30E509541FFEE49393
:10008200A360010ECF54C025E060A840B8E493A35A
:10009200FAE493A3F8E493A3C8C582C8CAC583CA85
:1000A200F0A3C8C582C8CAC583CADFE9DEE780BE3D
:01015B0000A3
:10011A00BB010689828A83E0225002E722BBFE02E3
:09012A00E32289828A83E4932216
:00000001FF
