:030000000203ED0B
:0C03ED00787FE4F6D8FD758133020434FB
:0C06650072656164206E756D3A256400BA
:1006160010240000000000000000000000000000A0
:06062600000002220000AA
:10047900E4F508F5091205FD12067C0523E523704C
:10048900020522D3940AE52294004027E4F522F5D7
:1004990023750DFF750E06750F65F510850911FB9E
:1004A9007A00792412005F7B007A007924E4FDFF49
:1004B90012058720B21D7F0A7E001204FD20B210AA
:1004C900E4FF12062D8F080508E4FDAF0812065552
:1004D90030B2FDE4FF12062D8F097F0A7E00120457
:0304E900FD8098FB
:05067100120676D2A183
:060676000000000000225C
:0A067C00D2A1120676D2A002067683
:0A068600D2A0120671C2A00206768F
:10055B001206867FA01205AF12056BAF051205AF11
:10056B00E4FFD2A112067630A00DEFC394FF748086
:0C057B00948050030F80F0C2A1020676AD
:0A069000C2A0120671D2A002067685
:1005AF00E4FEEEC39408748094805011EF25E0FFB1
:1005BF00C2A112067692A01206710E80E5C2A11298
:0705CF000676D2A1020676B8
:10052C00C2A1120676D2A0E4FEEEC39408748094A5
:10053C00805019D2A1120676D2A0EF25E0FDA2A020
:0F054C00E4334DFFC2A11206760E80DD02067663
:10065500AC0712055BAF041205AF12056B020690DD
:02062D00AD0717
:10062F0012055B1206867FA11205AF12056B12052C
:04063F002C020690F3
:1004EC00C2A58F807F017E001204FDD2A77F057EFE
:0104FC0000FF
:1004FD00D3EF9400EE940040257DC7EDD3940074A6
:10050D0080948040127C01ECD394007480948040E0
:0E051D00031C80F31D80E4EF1F70D51E80D2FA
:01052B0022AD
:0A069A00C2A7C2A61204ECC2A722F8
:0A06A400C2A7D2A61204ECC2A722DE
:1005FD007F3812069A7F0C12069A7F0612069A7F92
:09060D000112069A7F8002069A90
:10064300ED7004AB078004EF2440FBEB4480FF0212
:02065300069A05
:100587008B0A8A0B890C120643AB0AAA0BA90C1219
:10059700035F6013050CE50C7002050B14F91203D9
:0805A7005FFF1206A480E222AE
:1003F900020479E493A3F8E493A34003F68001F29D
:1004090008DFF48029E493A3F85407240CC8C33304
:10041900C4540F4420C8834004F456800146F6DFD3
:10042900E4800B0102040810204080900616E47E47
:10043900019360BCA3FF543F30E509541FFEE493C8
:10044900A360010ECF54C025E060A840B8E493A38F
:10045900FAE493A3F8E493A3C8C582C8CAC583CABA
:10046900F0A3C8C582C8CAC583CADFE9DEE780BE72
:01062C0000CD
:10035F00BB010689828A83E0225002E722BBFE029C
:09036F00E32289828A83E49322CF
:10000300E519240DF8E6051922780A300702780D60
:10001300E475F0011203B702035F2000EB7F2ED2D9
:10002300008018EF540F2490D43440D4FF30040BD5
:10003300EF24BFB41A0050032461FFE51A600215D0
:100043001A051DE51D7002051C30070D780AE475BD
:10005300F0011203B7EF0203A50205D67403D2071A
:100063008003E4C207F5198B0A8A0B890CE4F51A9D
:10007300F51CF51DE51A60077F2012003E80F5751B
:100083001BFFC201C200C202C203C205C206C208EC
:1000930012000CFF700D3007057F0012004FAF1DDB
:1000A300AE1C22B4255FC2D5C20412000CFF24D0BB
:1000B300B40A00501A75F00A781A30D50508B6FF4D
:1000C3000106C6A426F620D5047002D20380D924E3
:1000D300CFB41A00EF5004C2E5D20402024FD2019A
:1000E30080C6D20080C0D20280BCD2D580BAD205ED
:1000F30080B47F2012003E2002077401B51A00402D
:10010300F1120003FF12003E020077D208D20680EC
:1001130095120003FB120003FA120003F94A4B7015
:100123000679207A037BFF20022EE51A602A7E00DF
:100133008E8275830012037860060EEE651B70F0E5
:10014300C2D5EBC0E0EAC0E0E9C0E0EE120296D00F
:10015300E0F9D0E0FAD0E0FB12035FFF60AAEBC046
:10016300E0EAC0E0E9C0E012003ED0E02401F9D0AB
:10017300E03400FAD0E0FBE51B0460DCD51BD9803A
:10018300877BFF7A027992D202809C791080027970
:1001930008C206C2088008D2D5790A8004790AC247
:1001A300D5E51B047002F51BE4FAFDFEFF12000304
:1001B300FC7B08200113120003FD7B1030000A12A0
:1001C3000003FE120003FF7B20EC3382D592D5504F
:1001D30013C3E43000069FFFE49EFEE42001039D69
:1001E300FDE49CFCE4CBF8C201EC700CCFCECDCC8B
:1001F300E824F8F870F38017C3EF33FFEE33FEED16
:1002030033FDEC33FCEB33FB994002FB0FD8E9EBF6
:10021300300105F8D0E0C448B201C0E00AEC4D4E0D
:100223004F78207B0070C2EAB51B0040BCC0E012CF
:100233000298D0F0D0E0200104C4C0E0C4B201C0F1
:10024300F0120027D0F0D5F0EB0200771203C701BC
:100253001453018E5800E54C00E14201924F019A7C
:0F02630044019A4900FA4301A0550184460184E1
:100272004501844703405000E92D00ED2E01102B6B
:1002820000F123010E2003292A00A94800000108D9
:100292003F3F3F00790AA2D5200314300509B91067
:1002A200020404B9080104A2D52006025001042068
:1002B20002689202B51A005034C0E07F2030031960
:1002C2007F30A20272067205500F1202EFC202C202
:1002D20006C205C2087F30800F300503E9C0E01274
:1002E200003E300503D0E0F9D0E0B51ACC30051756
:1002F2007F30B9100C12003E7F583004077F78809F
:1003020003B9080312003E3002057F2D02003E7F32
:10031200202008F87F2B2006F322920280CF286E3D
:10032200756C6C2900D2011200033001F8C2017809
:100332001A30D50108F60200A92D5043495812007F
:10034200032403B405004001E490033B9312002F01
:0D035200743A12002FD203751A0402018EB6
:10037800BB010CE58229F582E5833AF583E022503A
:1003880006E92582F8E622BBFE06E92582F8E22284
:0D039800E58229F582E5833AF583E493229E
:1003A500BB010689828A83F0225002F722BBFE0137
:0203B500F32231
:1003B700FAE6FB0808E6F925F0F618E6CA3AF62247
:1003C700D083D082F8E4937012740193700DA3A3C5
:1003D70093F8740193F5828883E4737402936860D9
:0603E700EFA3A3A380DFD9
:1005D600EFB40A07740D1205E1740A309811A89950
:1005E600B8130CC2983098FDA899C298B811F63085
:0705F60099FDC299F599225D
:00000001FF
