:030000000201E515
:0C01E500787FE4F6D8FD75812C02022C16
:1004750001250001210001220001230001240002C1
:070485001D0000021F000032
:0E04D3001204A11204C11200C112043F80F8ED
:10027100AF257E00EF702FE50875F00A8485F02C1C
:10028100E50875F00A84F52BE50975F00A8485F017
:100291002AE50975F00A84F529E51775F00A8485C0
:1002A100F028E5178033EF64014E7033E51675F0E1
:1002B1000A8485F02CE51675F00A84F52BE50B759B
:1002C100F00A8485F02AE50B75F00A84F529E51515
:1002D10075F00A8485F028E51575F00A84F5272262
:1002E100EF64017004F51FF520E520451F704630CD
:1002F100B00930B10630B20320B33A051EE51E70D5
:1003010002051DD39402E51D648094804038751F59
:1003110000752001E4F51DF51E20B00475210122B0
:1003210020B1047522012220B2047523012220B3D9
:10033100157524012230B00E30B10B30B20830B344
:0603410005E4F51FF520A4
:010347002293
:10043F00E52164017003F52122E52264017015F5B1
:10044F0022AF25FEEF700475250122EF64014E7077
:10045F0014F52522E52364017003F52322E52464B6
:06046F00017002F52422D9
:1004C100758901E4F58A758CEEC28DD28CD2A9D2E0
:0204D100AF2258
:03000B000203F6F7
:1003F600C0E0C0F0C083C082C0D075D000C000C0CD
:1004060001C002C003C004C005C006C007758A004B
:10041600758CEEE4FF1202E1120271120157D00749
:10042600D006D005D004D003D002D001D000D0D061
:09043600D082D083D0F0D0E03276
:0B04EF003F065B4F666D7D077F6F00CE
:0B048C00062700010203040501260002
:100157000526D3E5269407748094804003E4F526AA
:10016700E4F580E526B408005065900178F8282862
:100177007302019002019202019C0201A40201AEE6
:100187000201B80201C20201CC8044C2A4C2A3D2B8
:10019700A2E5288042C2A4D2A3C2A2801AC2A4D2D6
:1001A700A3D2A2E5298030D2A4C2A3C2A2E52A80A5
:1001B70026D2A4C2A3D2A275804022D2A4D2A3C2BF
:1001C700A2E52B8012D2A4D2A3D2A2E52C8008C22A
:0D01D700A4C2A3C2A2E5279004EF93F58017
:0101E40022F8
:0E04E10081838587898B8D80828486888A8CB2
:09049700070E5559220907062041
:0C03A400EC9004E893FF740E2CF8E6FDCA
:1003B000C2B500C2B600D2B500E4FEEEC394087424
:1003C0008094805011EF1392B4EFC313FFD2B600A4
:1003D000C2B6000E80E5E4FEEEC3940874809480FB
:1003E0005011ED1392B4EDC313FDD2B600C2B600A6
:0503F0000E80E5C2B51E
:0103F50022E5
:10034800C2B500C2B600D2B500E4FDEDC39408748E
:100358008094805011EF1392B4EFC313FFD2B6000C
:10036800C2B6000D80E500E4FDEDC39408748094E6
:1003780080501AA2B4E433FFC43333335480FCEE04
:10038800C3134CFED2B600C2B6000D80DCC2B50065
:0B039800D2B600D2B400C2B400AF0621
:0103A3002237
:1004A100E4FD7F8E1203B0E4FCECC39407748094E6
:1004B1008050061203A40C80F07D807F8E0203B071
:1000C100E4FBEBC39407748094805012EB9004E13D
:1000D10093FF120348740E2BF8A6070B80E4E50E7C
:1000E100C4540F75F00AA4FFE50E540F2FF508E56F
:1000F1000FC4540F75F00AA4FFE50F540F2FF50933
:10010100E510C4540F75F00AA4FFE510540F2FF544
:1001110017E511C4540F75F00AA4FFE511540F2F10
:10012100F516E512C4540F75F00AA4FFE512540F39
:100131002FF50BE513C4540F75F00AA4FFE5135412
:100141000F2FF50CE514C4540F75F00AA4FFE51444
:05015100540F2FF5150D
:010156002286
:10000E00E4FD7F8E1203B0E50A75F00A84C454F045
:10001E00FFE50A75F00A84E5F02FF50EE50D75F093
:10002E000A84C454F0FFE50D75F00A84E5F02FF54F
:10003E000FE51C75F00A84C454F0FFE51C75F00A38
:10004E0084E5F02FF510E51B75F00A84C454F0FF1B
:10005E00E51B75F00A84E5F02FF511E51875F00A29
:10006E0084C454F0FFE51875F00A84E5F02FF512FC
:10007E00E51975F00A84C454F0FFE51975F00A8489
:10008E00E5F02FF513E51A75F00A84C454F0FFE578
:10009E001A75F00A84E5F02FF514E4FCECC394070E
:1000AE007480948050061203A40C80F07D807F8EA5
:0300BE000203B08A
:1001F1000204D3E493A3F8E493A34003F68001F24D
:1002010008DFF48029E493A3F85407240CC8C3330E
:10021100C4540F4420C8834004F456800146F6DFDD
:10022100E4800B0102040810204080900475E47EF4
:10023100019360BCA3FF543F30E509541FFEE493D2
:10024100A360010ECF54C025E060A840B8E493A399
:10025100FAE493A3F8E493A3C8C582C8CAC583CAC4
:10026100F0A3C8C582C8CAC583CADFE9DEE780BE7C
:0104A000005B
:00000001FF
