:030000000201C238
:0C01C200787FE4F6D8FD75810C02013353
:10000300E0F0DF7E880878D8FEFFE0000000408043
:100013000304C83909090808F8F5F3F0E0E0F0CF64
:100023000000881000F0909090FC90903000000049
:1000330000001009201F20231408142320000000AF
:1000430000800020E0000830C000020C7080000037
:10005300000000020300100C030040300E010000FA
:100133001201631200BEC2A0D2A17A007B037D30FC
:10014300E4FF120063D2A0C2A17A007B23E4FDFF87
:100153001200637A007B437D10E4FF12006380FE8C
:10010200C2A38A907F027E00120113D2A47F027ED4
:0101120000EC
:10011300E4FDFCC3ED9FEC9E50070DBD00010C8078
:0F012300F2E4FFFE0FBF00010EEF640A4E70F50D
:0101320022AA
:10018E00C2A2D2A3E4FBD2A47F02FE120113C2A428
:09019E00E47003D38001C350EBAF
:0101A7002235
:0D01A800AA0712018EC2A2120102C2A422F7
:100163007F647E00120113D2A0D2A17F647E0012AD
:1001730001137F3E1201A87FB81201A87FC01201AC
:0B018300A87F401201A87F3F0201A8E6
:0D01B500AA0712018ED2A2120102C2A422DA
:1000BE00C2A0C2A17FB81201A87F401201A8E4F528
:1000CE0008C3E5089408748094805027E50824B886
:1000DE00FF1201A8E4F9E9C3944074809480500F94
:1000EE00E92440FF1201A8E4FF1201B50980E705DB
:0300FE000880CEA9
:0101010022DB
:080063008F088D098A0A8B0B3E
:10006B00E4F9F50CE9C39402748094805044E508DC
:10007B0024B829FF1201A8E5092440FF1201A8E4C6
:10008B00F50CC3E50C9410748094805022E975F044
:10009B0010A47C00250CFFEC35F0FEE50B2FF58250
:1000AB00E50A3EF583E493FF1201B5050C80D309F5
:0200BB0080B211
:0100BD002220
:00000001FF
