:03000000020400F7
:0C040000787FE4F6D8FD758133020447D4
:1006AD004F4E5F486F75723A2532640054656D7018
:0806BD00483A202025326400B8
:10067B0001330701322010220000000000000000AF
:08068B00000000000000000067
:10048C001206941206FD7F007E201206D8AD337F33
:10049C00017E20120642AD327F027E201206427D82
:1004AC000E7F077E201206427F017E201206618F8E
:1004BC00337F037E201206618F32750BFF750C069D
:1004CC00750DAD750E0085330F7B007A0079221205
:1004DC0000727B007A007922E4FDFF1205F3750BA4
:1004EC00FF750C06750DB9750E0085320F7B007A01
:1004FC000079221200727B007A0079227D01E4FFE0
:05050C001205F380A3BD
:0B06FD00D288D2A8D28AD2AAD2AF22A3
:03000B00020511DA
:10051100C0E0C0F0C083C082C0D075D000C000C0B0
:1005210001C002C003C004C005C006C0077F007E31
:10053100201206D87D077F017E201206427D207F92
:10054100027E20120642D007D006D005D004D00387
:10055100D002D001D000D0D0D082D083D0F0D0E072
:010561003267
:0300130002056281
:10056200C0E0C0F0C083C082C0D075D000C000C05F
:1005720001C002C003C004C005C006C0077F007EE0
:10058200201206D87D087F017E201206427D217F3F
:10059200027E20120642D007D006D005D004D00336
:1005A200D002D001D000D0D0D082D083D0F0D0E021
:0105B2003216
:1005B300C2A58F807F017E001205C4D2A77F057E6E
:0105C3000037
:1005C400D3EF9400EE940040257DC7EDD3940074DE
:1005D40080948040127C01ECD39400748094804019
:0E05E400031C80F31D80E4EF1F70D51E80D233
:0105F20022E6
:0A071300C2A7C2A61205B3C2A722B6
:0A071D00C2A7D2A61205B3C2A7229C
:100694007F381207137F0C1207137F061207137F8C
:0906A400011207137F8002071305
:1006EB00ED7004AB078004EF2440FBEB4480FF026A
:0206FB000713E3
:1005F3008B088A09890A1206EBAB08AA09A90A1211
:1006030003726013050AE50A7002050914F912035F
:0806130072FF12071D80E222B4
:0706C500C2AF8CE3EDF5E488
:0C06CC00C2AF53E71843E70143E7802268
:0B07080053E77FE4F5E5F5E6D2AF22F1
:0800030075E64675E6B900221E
:04066100AD07AC062F
:10066500E4FF1206C553E5F843E501120003AFE2C6
:05067500120708D2AFDE
:01067A00225D
:10064200AB07AA06C2AF8AE3EBF5E41206CC53E588
:0F065200F843E5028DE2120003120708D2AF222F
:1006D800AD07AC061206C553E5F843E5031200035F
:0306E800020708FE
:10040C0002048CE493A3F8E493A34003F68001F276
:10041C0008DFF48029E493A3F85407240CC8C333F1
:10042C00C4540F4420C8834004F456800146F6DFC0
:10043C00E4800B010204081020408090067BE47ECF
:10044C00019360BCA3FF543F30E509541FFEE493B5
:10045C00A360010ECF54C025E060A840B8E493A37C
:10046C00FAE493A3F8E493A3C8C582C8CAC583CAA7
:10047C00F0A3C8C582C8CAC583CADFE9DEE780BE5F
:010693000066
:10037200BB010689828A83E0225002E722BBFE0289
:09038200E32289828A83E49322BC
:10001600E517240BF8E60517227808300702780B57
:10002600E475F0011203CA0203722000EB7F2ED2A0
:10003600008018EF540F2490D43440D4FF30040BC2
:10004600EF24BFB41A0050032461FFE518600215BF
:1000560018051BE51B7002051A30070D7808E475B4
:10006600F0011203CAEF0203B802061B7403D2079B
:100076008003E4C207F5178B088A09890AE4F51894
:10008600F51AF51BE51860077F2012005180F575FB
:1000960019FFC201C200C202C203C205C206C208DB
:1000A60012001FFF700D3007057F00120062AF1BA4
:1000B600AE1A22B4255FC2D5C20412001FFF24D097
:1000C600B40A00501A75F00A781830D50508B6FF3C
:1000D6000106C6A426F620D5047002D20380D924D0
:1000E600CFB41A00EF5004C2E5D204020262D20174
:1000F60080C6D20080C0D20280BCD2D580BAD205DA
:1001060080B47F201200512002077401B518004008
:10011600F1120016FF12005102008AD208D20680A0
:1001260095120016FB120016FA120016F94A4B70C9
:100136000679337A037BFF20022EE518602A7E00BB
:100146008E8275830012038B60060EEE651970F0C1
:10015600C2D5EBC0E0EAC0E0E9C0E0EE1202A9D0E9
:10016600E0F9D0E0FAD0E0FB120372FF60AAEBC020
:10017600E0EAC0E0E9C0E0120051D0E02401F9D085
:10018600E03400FAD0E0FBE5190460DCD519D9802B
:10019600877BFF7A0279A5D202809C79108002794A
:1001A60008C206C2088008D2D5790A8004790AC234
:1001B600D5E519047002F519E4FAFDFEFF120016E2
:1001C600FC7B08200113120016FD7B1030000A127A
:1001D6000016FE120016FF7B20EC3382D592D55016
:1001E60013C3E43000069FFFE49EFEE42001039D56
:1001F600FDE49CFCE4CBF8C201EC700CCFCECDCC78
:10020600E824F8F870F38017C3EF33FFEE33FEED02
:1002160033FDEC33FCEB33FB994002FB0FD8E9EBE3
:10022600300105F8D0E0C448B201C0E00AEC4D4EFA
:100236004F78207B0070C2EAB5190040BCC0E012BE
:1002460002ABD0F0D0E0200104C4C0E0C4B201C0CB
:10025600F012003AD0F0D5F0EB02008A1203DA0170
:10026600275301A15800F84C00F44201A54F01ADF7
:0F0276004401AD49010D4301B35501974601976E
:100285004501974703535000FC2D01002E01232BF8
:10029500010423012120033C2A00BC480000011B66
:1002A5003F3F3F00790AA2D5200314300509B91054
:1002B500020404B9080104A2D52006025001042055
:1002C50002689202B518005034C0E07F203003194F
:1002D5007F30A20272067205500F120302C202C2DB
:1002E50006C205C2087F30800F300503E9C0E01261
:1002F5000051300503D0E0F9D0E0B518CC30051732
:100305007F30B9100C1200517F583004077F788078
:1003150003B908031200513002057F2D0200517FF9
:10032500202008F87F2B2006F322920280CF286E2A
:10033500756C6C2900D2011200163001F8C20178E3
:100345001830D50108F60200BC2D5043495812005B
:10035500162403B405004001E490034E93120042B5
:0D036500743A120042D2037518040201A17F
:10038B00BB010CE58229F582E5833AF583E0225027
:10039B0006E92582F8E622BBFE06E92582F8E22271
:0D03AB00E58229F582E5833AF583E493228B
:1003B800BB010689828A83F0225002F722BBFE0124
:0203C800F3221E
:1003CA00FAE6FB0808E6F925F0F618E6CA3AF62234
:1003DA00D083D082F8E4937012740193700DA3A3B2
:1003EA0093F8740193F5828883E4737402936860C6
:0603FA00EFA3A3A380DFC6
:10061B00EFB40A07740D120626740A309811A899C4
:10062B00B8130CC2983098FDA899C298B811F6303F
:07063B0099FDC299F5992217
:00000001FF
