:030000000202A653
:0C02A600787FE4F6D8FD7581130200BFDC
:0E02980053554343455353004552524F5200B5
:1000BF001202381202B27F007E2012021C8F137FB1
:1000CF00017E2012021C8F12E51364076005EF6496
:1000DF002070197F801202C7750BFF750C02750D0A
:1000EF00987B077D01E4FF1201FC80057F801202DF
:1000FF00C7750BFF750C02750DA07B057D01E4FF25
:05010F001201FC80B1AB
:1002820075E78175E5038FE48EE3C2AF75E64675C7
:06029200E6B9000202BD06
:10026A0075E78175E5028FE48EE38DE2C2AF75E62C
:08027A004675E6B9000202BD61
:10021C0075E78175E5018FE48EE3C2AF75E646752F
:0B022C00E6B90085E2081202BDAF0831
:0102370022A4
:0A02BD00E4F5E7F5E5F5E6D2AF221F
:1001BC00C2A58F807F017E001201CDD2A77F057E64
:0101CC000032
:1001CD00D3EF9400EE940040257DC7EDD3940074D9
:1001DD0080948040127C01ECD39400748094804014
:0E01ED00031C80F31D80E4EF1F70D51E80D22E
:0101FB0022E1
:1001FC00120016AB0BAA0CA90D120251FF601012C3
:10020C0002D17401250DF50DE4350CF50C80E422BA
:060016008F0E8D0F8B1010
:10001C00E50F7023E50E2480FF1202C7E4F511E50D
:10002C0011C3951050097F201202D1051180F0E503
:10003C000E2480FF1202C7E50F64017023E50E2425
:10004C00C0FF1202C7E4F511E511C3951050097FEA
:10005C00201202D1051180F0E50E24C0FF1202C758
:10006C00E50F64027023E50E2494FF1202C7E4F539
:10007C0011E511C3951050097F201202D105118092
:10008C00F0E50E2494FF1202C7E50F64037023E51C
:10009C000E24D4FF1202C7E4F511E511C3951050DC
:1000AC00097F201202D1051180F0E50E24D4FF1235
:0200BC0002C779
:0100BE00221F
:0A02C700C2A7C2A61201BCC2A72202
:0A02D100C2A7D2A61201BCC2A722E8
:100238007F381202C77F0C1202C77F061202C77FDF
:09024800011202C77F800202C707
:0B02B200D288D2A8D28AD2AAD2AF22F2
:03000B00020114DB
:10011400C0E0C0F0C083C082C0D075D000C000C0B1
:1001240001C002C003C004C005C006C0077F007E32
:10013400201202827D077F007E2012026A7D207FCA
:10014400017E2012026A120238D007D006D005D0F0
:1001540004D003D002D001D000D0D0D082D083D03C
:04016400F0D0E032C5
:030013000201687F
:10016800C0E0C0F0C083C082C0D075D000C000C05D
:1001780001C002C003C004C005C006C0077F007EDE
:10018800201202827D087F007E2012026A7D217F74
:10019800017E2012026A120238D007D006D005D09C
:1001A80004D003D002D001D000D0D0D082D083D0E8
:0401B800F0D0E03271
:10025100BB010689828A83E0225002E722BBFE02AB
:09026100E32289828A83E49322DE
:00000001FF
