:0300000002014CAE
:0C014C00787FE4F6D8FD7581070200BC46
:0B016300303132333435363738390084
:0501580012015DD2A1BF
:06015D000000000000227A
:0F0062008F807F057E00120071D2A77F057E0080
:10007100EF1FAA0670011E4A60147C007D6ED3ED4D
:0E0081009400EC940040E9ED1D70F31C80F03B
:01008F00224E
:08018C00C2A6120062C2A72204
:08019400D2A6120062C2A722EC
:10010E00C2A5C2A77F3812018C7F0C12018C7F060C
:08011E0012018C7F0102018C2B
:0A016E00D2A112015DD2A002015DD2
:0A017800D2A0120158C2A002015DDE
:100090001201787FA01200E71200A0AF051200E75E
:1000A000E4FFD2A112015D30A00DEFC394FF748074
:0C00B000948050030F80F0C2A102015D9B
:0A018200C2A0120158D2A002015DD4
:1000E700E4FEEEC39408748094805011EF25E0FF7E
:1000F700C2A112015D92A01201580E80E5C2A112A1
:07010700015DD2A102015DC0
:10003300C2A112015DD2A0E4FEEEC39408748094C1
:10004300805019D2A112015DD2A0EF25E0FDA2A03C
:0F005300E4334DFFC2A112015D0E80DD02015D9D
:10013C00AC07120090AF041200E71200A00201827B
:02012600AD0723
:100128001200901201787FA11200E71200A01200BD
:04013800330201820B
:10000300AB077F8012018CEB75F0648490016393DE
:10001300FF120194EB75F06484E5F075F00A8493A4
:10002300FF120194EB75F00A84E5F093FF0201944B
:1000BC0012010E12016E20B2187F0A7E001200711E
:1000CC0020B20BE4FF1201260FE4FD12013C30B20A
:0B00DC00FDE4FF12012612000380DB90
:00000001FF
