:100000000209D6EC4D6011E8497017ED33EC33046A
:10001000600DE4FCFFFEFD22E933E8330470F802D2
:10002000021C1201E758046009E4CC248150062820
:100030005009020226284003020223C0E0EB4A7066
:1000400044B98006D0E0FB020212EF4E701CBD8066
:1000500008EBFFEAFEE9FD80EBE98DF0A4FEE5F098
:100060000200ECE9CDF9EAFEEBFFEF89F0A4FCE534
:10007000F0CE89F0A42EFFE435F0CD89F0A42DFE5A
:10008000E435F08067EF4E7005BD80D780C3EF8BFD
:10009000F0A4ACF0EE8BF0A42CFCE435F0F8EF8A81
:1000A000F0A42CE5F038FCE433CB8DF0A42CFCE577
:1000B000F03BF8EE8AF0A42CFCE5F038F8E433CFFE
:1000C00089F0A42CFCE5F038CF3400CE89F0A42FC1
:1000D000FFE5F03EFEE433C98DF0A42EFEE5F039D5
:1000E000CD8AF0A42FFFE5F03EFEE43DFD33D0E0E5
:1000F000FB50070BBB000F020226EC2CFCEF33FF7A
:10010000EE33FEED33FD0201FE020226EC5D0460DB
:1001100005E85904700302021C1201E7580460F656
:10012000EC4860F2EC7004FDFEFF22C860DB248125
:10013000C85009C398600250060202239850CAF5BD
:1001400082E9294B4A7005AB8202021275F0007CED
:100150001A7880C3EF9BEE9AED99400DC3EF9BFF99
:10016000EE9AFEED99FDE842F0DC23ACF0D0E0FF22
:10017000D0E0FED0E0FDAB8220E7101BEB60BAECD4
:100180002CFCEF33FFEE33FEED33FD0201FEE803FE
:10019000F830E705C0F075F000EF2FFFEE33FEED0D
:1001A00033FD40B830E7C280AA75F020800E75F0AC
:1001B00010800575F0087D007E007F003392D530F9
:1001C000D503120523EC334010EF33FFEE33FEED81
:1001D00033FDEC33FCD5F0ED22E5F0247EA2D513FF
:1001E000CC92E7CDCEFF22E9D2E7C933E833F892CB
:1001F000D5EDD2E7CD33EC33FC5002B2D522EC3052
:10020000E7100FBF000C0EBE00080DBD00040BEB85
:100210006014A2D5EB13FCED92E7FD2274FFFCFD08
:10022000FEFF22E480F8A2D574FF13FC7D80E480F9
:10023000EFF920E72824F950037907E4F42402FBBE
:1002400018DBFDE624FB5014E9600DE4F618E60423
:10025000F6B40A08E4F6D9F57401F60A22C2D522EA
:10026000ED33EC3392D5FA602AB4FF33EDC2E77B6D
:10027000FF60067A027985E4227A02798E20D5041D
:100280007A027989224E614E002B494E46002D4953
:100290004E4600E47A08F608DAFC7B00740722E890
:1002A000C0E0ECC0E0EDC0E0EEC0E0EFC0E0EA7519
:1002B000F010A4CAABF075F04DA42BFBE435F0FCB4
:1002C000EA2410FAEB34C5FBEC34D9FCEDC2E7FFAD
:1002D00075F056A4F42411C5F0F434C58FF0A42AA7
:1002E000E5F03BE43CF620E71412048BD0E0FFD0AD
:1002F000E0FED0E0FDD0E0FC12010C8014F404120A
:10030000048BD0E0FFD0E0FED0E0FDD0E0FC120096
:1003100003D0E0F8E6FAEDD2E7CD33EC332482FBEC
:10032000E4C3CF33CFCE33CECD33CD33DBF37B0736
:1003300075F00A846004F6081B0AE5F0F6088FF0F1
:10034000740AA4FFACF08EF0740AA42CFEACF0503A
:10035000010C8DF0740AA42CFDE435F0F608DBDE08
:1003600074072202021CE86480F8E933E833601164
:100370000460F0ED33EC337009E8FCE9FDEAFEEBD4
:10038000FF220460DED3EB9FEA9EE99DE8C2E78C82
:10039000F0C2F795F0400CE8CCF8E9CDF9EACEFAD6
:1003A000EBCFFB1201E785D0F05804700320D5B3E2
:1003B000E80470075002B2D502022692D5EC046020
:1003C000F7E4CCC0E0C398F8603B94186008400D97
:1003D000D0E0FB0201FEE4FBFAC9FC8028E830E42F
:1003E00006E4C9FBE4CAFCE830E305E4C9CACBFC77
:1003F000E854076010F8C3E913F9EA13FAEB13FBAA
:10040000EC13FCD8F130F52FC3E49CFCEF9BFFEE1E
:100410009AFEED99FDD0E0FBEF4E4D4C701222DBC1
:1004200003020223EC2CFCEF33FFEE33FEED33FD31
:10043000ED30E7EB0201FEEF2BFFEE3AFEED39FD6A
:10044000D0E0FB50130BBB0003020226ED13FDEEC0
:1004500013FEEF13FFEC13FC0201FE3F800000418E
:1004600020000042C80000447A0000461C400047BB
:10047000C35000497424004B1896804CBEBC205ACF
:100480000E1BCA6753C21C749DC5AEFB60065407A1
:10049000601C23231204B9EB543860091204A5121E
:1004A00004B4120003ECF8EDF9EEFAEFCB22EB12F4
:1004B00004B480F1543803241C90045BFE93FC0EBA
:1004C000EE93FD0EEE930ECE93FF22BB01068982C2
:1004D0008A83E0225002E722BBFE02E32289828A5D
:1004E00083E49322BB010CE58229F582E5833AF58A
:1004F00083E0225006E92582F8E622BBFE06E925C4
:1005000082F8E222E58229F582E5833AF583E493D5
:1005100022BB010689828A83F0225002F722BBFEA9
:1005200001F322C3E49FFFE49EFEE49DFDE49CFCF6
:1005300022FAE6FB0808E6F925F0F618E6CA3AF6CC
:1005400022D083D082F8E4937012740193700DA3CB
:10055000A393F8740193F5828883E473740293681B
:1005600060EFA3A3A380DFE55B2447F8E6055B22E9
:1005700078443007027847E475F00112053102042F
:10058000CB2000EB7F2ED2008018EF540F2490D4A4
:100590003440D4FF30040BEF24BFB41A00500324BE
:1005A00061FFE55C6002155C055FE55F7002055E5A
:1005B00030070D7844E475F001120531EF020511A2
:1005C000020BF17403D2078003E4C207F55B8B448E
:1005D0008A458946E4F55CF55EF55FE55C60077F7A
:1005E000201205A280F5755DFFC201C200C202C2E1
:1005F00003C205C206C208120570FF700D30070560
:100600007F001205B3AF5FAE5E22B4255FC2D5C2D4
:1006100004120570FF24D0B40A00501A75F00A784D
:100620005C30D50508B6FF0106C6A426F620D50421
:100630007002D20380D924CFB41A00EF5004C2E56F
:10064000D2040208A0D20180C6D20080C0D20280AB
:10065000BCD2D580BAD20580B47F201205A2200278
:10066000077401B55C0040F1120567FF1205A20294
:1006700005DBD208D2068095120567FB120567FAE2
:10068000120567F94A4B700679977A097BFF2002B9
:100690002EE55C602A7E008E827583001204E46081
:1006A000060EEE655D70F0C2D5EBC0E0EAC0E0E991
:1006B000C0E0EE120900D0E0F9D0E0FAD0E0FB1281
:1006C00004CBFF60AAEBC0E0EAC0E0E9C0E012059D
:1006D000A2D0E02401F9D0E03400FAD0E0FBE55DDF
:1006E0000460DCD55DD98087D20280A21208E36065
:1006F000F7E55D700104120231A95D600DE55D60F2
:100700000914F55D12098AEF60F3EA30E702F40498
:10071000C3995077EAF4255D0430E701E404F55D00
:10072000800D1208E360C1EA055D255D120231EA21
:10073000785AF630E701E4255D04D55D0420050113
:1007400014120900E4C0E012098A785AE660132006
:10075000E70714F612058A802204F6D0E014C0E000
:100760007F0012058AE55D6007120581155D800B2B
:10077000300503120581D0E00205DBD0E00480C51E
:100780001208E360A0E55D04120231785AEAF6E54A
:100790005D200502600104240412090074FF04C0F6
:1007A000E012098A12058AE55D2005026003120540
:1007B00081D0E0B55DE87F45120594785AE67F2B3D
:1007C00030E7047F2DF404C0E01205A2D0E075F0FC
:1007D0000A84C0F012058BD0E012058B0205DB798C
:1007E0001080027908C206C2088008D2D5790A8032
:1007F00004790AC2D5E55D047002F55DE4FAFDFEF8
:10080000FF120567FC7B08200113120567FD7B10B2
:1008100030000A120567FE120567FF7B20EC338269
:10082000D592D55013C3E43000069FFFE49EFEE44A
:100830002001039DFDE49CFCE4CBF8C201EC700CAC
:10084000CFCECDCCE824F8F870F38017C3EF33FF98
:10085000EE33FEED33FDEC33FCEB33FB994002FB52
:100860000FD8E9EB300105F8D0E0C448B201C0E090
:100870000AEC4D4E4F78207B0070C2EAB55D004017
:10088000BCC0E0120902D0F0D0E0200104C4C0E0F6
:10089000C4B201C0F012058BD0F0D5F0EB0205DB3D
:1008A00012054106785307DF5806494C06454207B2
:1008B000E34F07EB4407EB49065E4307F155072278
:1008C0004607804506EC4709B750064D2D06512EC8
:1008D00006742B06552306722009A02A060D48002F
:1008E00000066CE55DB4FF03755D06120567FC123A
:1008F0000567FD120567FE120567FF785302026067
:10090000790AA2D5200314300509B910020404B9EC
:10091000080104A2D52006025001042002689202B8
:10092000B55C005034C0E07F203003197F30A20254
:1009300072067205500F120959C202C206C205C2E0
:10094000087F30800F300503E9C0E01205A23005B2
:1009500003D0E0F9D0E0B55CCC3005177F30B9109A
:100960000C1205A27F583004077F788003B9080372
:100970001205A23002057F2D0205A27F202008F873
:100980007F2B2006F322920280CF7F00B407005015
:10099000052453F8E6FF22286E756C6C2900D201FD
:1009A0001205673001F8C201785C30D50108F60203
:1009B000060D2D504349581205672403B405004025
:1009C00001E49009B293120593743A120593D2038D
:1009D000755C040207DF787FE4F6D8FD75815F025D
:1009E0000A1D020AE7E493A3F8E493A34003F68008
:1009F00001F208DFF48029E493A3F85407240CC81B
:100A0000C333C4540F4420C8834004F456800146C5
:100A1000F6DFE4800B0102040810204080900B9F59
:100A2000E47E019360BCA3FF543F30E509541FFEF0
:100A3000E493A360010ECF54C025E060A840B8E461
:100A400093A3FAE493A3F8E493A3C8C582C8CAC5E4
:100A500083CAF0A3C8C582C8CAC583CADFE9DEE776
:100A600080BEE4FDFCC290D29200C29100D2900000
:100A7000EF700EC290D29200D29000C290C29280CB
:100A80000CC290D29200D29000C290D29200D2902A
:100A900000C290D292E4FFEFC39408748094805017
:100AA0001500ED25E0FDD29000C29030930543057E
:100AB0000180000F80E1E4FFEFC39408748094800C
:100AC0005015ECC313FC309305430480800000D222
:100AD0009000C2900F80E1EDB50402AE0400D29107
:100AE000D293D290AF0622120C18E4FF120A628F42
:100AF000427F01120A628F437547FF75480C7549A2
:100B000057AC42E41201B3E4FBFA797F7843120157
:100B10000CE4FBFA79A078401200038F4D8E4C8DC7
:100B20004B8C4A7B007A0079221205C37B007A0045
:100B30007922E4FDFF120BC97547FF75480C754912
:100B400067754A0085434B7B007A0079321205C3F2
:100B50007B007A0079327D01E4FF120BC9808BC2E1
:100B6000A18F807F017E00120B70D2A27F057E00D4
:100B7000D3EF9400EE940040257DC7EDD39400742C
:100B800080948040127C01ECD39400748094804067
:100B9000031C80F31D80E4EF1F70D51E80D222203D
:100BA0002022000000000000000000000000000003
:100BB0000000000000000000000000000000000035
:100BC0000000014200014300008B448A458946121F
:100BD0000C31AB44AA45A9461204CB60130546E587
:100BE000467002054514F91204CBFF120C4D80E249
:100BF00022EFB40A07740D120BFC740A309811A886
:100C000099B8130CC2983098FDA899C298B811F6FB
:100C10003099FDC299F599227F38120C437F0C124E
:100C20000C437F06120C437F01120C437F80020CA1
:100C300043ED7004AB078004EF2440FBEB4480FFDE
:100C4000020C43C2A2C2A0120B5FC2A222C2A2D255
:100C5000A0120B5FC2A22261646347657430203D1D
:100C600020252E3266560061646347657431203D4D
:050C70002025336400A3
:00000001FF
