:0300000002000EED
:0C000E00787FE4F6D8FD75810A020055E9
:0800030012019212016380FB5F
:10016300E50A64017028AF09E5096003E4F509EFC6
:10017300FD7C006404700475A0AA22ED64084C7031
:0E0183000475A0BB22ED640C4C700375A0CC7B
:01019100224B
:10019200758901E4F58A758CEEC28DD28CD2A9D212
:0201A200AF228A
:03000B00020122CD
:10012200C0E0C0F0C083C082C0D075D000C000C0A3
:1001320001C002C003C004C005C006C007758A0022
:10014200758CEE12009AD007D006D005D004D003E9
:10015200D002D001D000D0D0D082D083D0F0D0E075
:01016200326A
:0901A400010900010A0001080034
:10009A0075900FAF90EF640F606CAF0AEF70670551
:1000AA0008AD90ED640F606FD3E5089402748094F4
:1000BA00804064EF7061F508750A0175900FAF9082
:1000CA00EF24F5601024FE601114601324077012E7
:1000DA00750901800D750902800875090380037589
:1000EA0009047590F0AF90EF2450600B24E0600B88
:1000FA0024F0600B24702274048006740880027451
:10010A000C2509F50922AF90EF640F700AE50A641D
:07011A00017004F50AF5096C
:0101210022BB
:10001A00020003E493A3F8E493A34003F68001F2F9
:10002A0008DFF48029E493A3F85407240CC8C333E7
:10003A00C4540F4420C8834004F456800146F6DFB6
:10004A00E4800B01020408102040809001A4E47EA1
:10005A00019360BCA3FF543F30E509541FFEE493AB
:10006A00A360010ECF54C025E060A840B8E493A372
:10007A00FAE493A3F8E493A3C8C582C8CAC583CA9D
:10008A00F0A3C8C582C8CAC583CADFE9DEE780BE55
:0101AD000051
:00000001FF
