:0300000002009E5D
:0C009E00787FE4F6D8FD7581100200E5C3
:0500030012018780FEE0
:10016E00751001750F02750E03750D04750C05756E
:09017E000B06750A077509082239
:10018700438901E4F58A758CEEC28DD28CD2A9D24F
:02019700AF2295
:03000B0002012AC5
:10012A00C0E0C0F0C083C082C0D075D000C000C09B
:10013A0001C002C003C004C005C006C007758A001A
:10014A00758CEE12016E12000ED007D006D005D0C3
:10015A0004D003D002D001D000D0D0D082D083D036
:04016A00F0D0E032BF
:0B01A7003F065B4F666D7D077F6F0019
:0D019900080900000000000000000108003F
:10000E000508D3E5089407748094804003E4F5084E
:10001E00E4F580E508B40800506790002FF8282812
:10002E007302004702004902005302005D0200679E
:10003E0002007102007B0200858046C2A4C2A3D2D8
:10004E00A2E50A8044C2A4D2A3C2A2E50B803AC2A2
:10005E00A4D2A3D2A2E50C8030D2A4C2A3C2A2E540
:10006E000D8026D2A4C2A3D2A2E50E801CD2A4D2A9
:10007E00A3C2A2E50F8012D2A4D2A3D2A2E5108011
:0F008E0008C2A4C2A3C2A2E5099001A793F580FE
:01009D002240
:1000AA00020003E493A3F8E493A34003F68001F269
:1000BA0008DFF48029E493A3F85407240CC8C33357
:1000CA00C4540F4420C8834004F456800146F6DF26
:1000DA00E4800B0102040810204080900199E47E1C
:1000EA00019360BCA3FF543F30E509541FFEE4931B
:1000FA00A360010ECF54C025E060A840B8E493A3E2
:10010A00FAE493A3F8E493A3C8C582C8CAC583CA0C
:10011A00F0A3C8C582C8CAC583CADFE9DEE780BEC4
:0101A6000058
:00000001FF
