:0300000002000EED
:0C000E00787FE4F6D8FD758109020055EA
:0400D9000208000019
:1000C4005389F0438901E4F58A758CEEC28DD28C94
:0500D400D2A9D2AF2209
:03000B0002009A56
:04009A00C0E0C0D032
:10009E00758A00758CEE0509E50970020508D39482
:1000AE0064E508648094804008B2A0750800750964
:0100BE000041
:0500BF00D0D0D0E032BA
:050003001200C480FEA4
:10001A00020003E493A3F8E493A34003F68001F2F9
:10002A0008DFF48029E493A3F85407240CC8C333E7
:10003A00C4540F4420C8834004F456800146F6DFB6
:10004A00E4800B01020408102040809000D9E47E6D
:10005A00019360BCA3FF543F30E509541FFEE493AB
:10006A00A360010ECF54C025E060A840B8E493A372
:10007A00FAE493A3F8E493A3C8C582C8CAC583CA9D
:10008A00F0A3C8C582C8CAC583CADFE9DEE780BE55
:0100DD000022
:00000001FF
