:0300000002009B60
:0C009B00787FE4F6D8FD7581090200E2D0
:08019D000155AA02034455AA12
:0601A50001090001080041
:10018B007BFF7A01799D1200037F027E0012016DC5
:02019B0080EEF4
:100003000508D3E5089407748094804003E4F50859
:10001300E4F590E508B408005072900024F828280D
:100023007302003C02003E02004902005402005FDA
:1000330002006A0200750200808051C2A4C2A3D2EA
:10004300A29000018040C2A4D2A3C2A29000028069
:1000530035C2A4D2A3D2A2900003802AD2A4C2A301
:10006300C2A2900004801FD2A4C2A3D2A290000512
:100073008014D2A4D2A3C2A29000068009D2A4D233
:10008300A3D2A2900007120140F59022C2A4C2A3FA
:07009300C2A2120127F59043
:01009A002243
:10016D00D3EF9400EE940040147D6E7C00ED1D7075
:0D017D00011CED4C70F7EF1F70E61E80E3D3
:01018A002252
:1000A70002018BE493A3F8E493A34003F68001F2E3
:1000B70008DFF48029E493A3F85407240CC8C3335A
:1000C700C4540F4420C8834004F456800146F6DF29
:1000D700E4800B01020408102040809001A5E47E13
:1000E700019360BCA3FF543F30E509541FFEE4931E
:1000F700A360010ECF54C025E060A840B8E493A3E5
:10010700FAE493A3F8E493A3C8C582C8CAC583CA0F
:10011700F0A3C8C582C8CAC583CADFE9DEE780BEC7
:0101AB000053
:10012700BB010689828A83E0225002E722BBFE02D6
:09013700E32289828A83E4932209
:10014000BB010CE58229F582E5833AF583E0225074
:1001500006E92582F8E622BBFE06E92582F8E222BE
:0D016000E58229F582E5833AF583E49322D8
:00000001FF
