:03000000020003F8
:0C000300787FE4F6D8FD75810802004A01
:08010300FEFDFBF7EFDFBF7FFB
:03010B00010800E8
:1000C200E4F508C3E50894087480948050F2E508CA
:1000D20090010393FF12008F7FF47E011200E50569
:0300E2000880E0B3
:10008F00E4FEEEFD3395E0FCC3ED9408EC64809440
:10009F008050197807EFA2E713D8FB24FF92B4EF33
:1000AF0025E0FFC2B60000D2B60E80D6C2B5000062
:0200BF00D2B5B8
:0100C100221C
:1000E500D3EF9400EE940040147D6E7C00ED1D70FE
:0D00F500011CED4C70F7EF1F70E61E80E35C
:0101020022DA
:10000F000200C2E493A3F8E493A34003F68001F245
:10001F0008DFF48029E493A3F85407240CC8C333F2
:10002F00C4540F4420C8834004F456800146F6DFC1
:10003F00E4800B010204081020408090010BE47E45
:10004F00019360BCA3FF543F30E509541FFEE493B6
:10005F00A360010ECF54C025E060A840B8E493A37D
:10006F00FAE493A3F8E493A3C8C582C8CAC583CAA8
:10007F00F0A3C8C582C8CAC583CADFE9DEE780BE60
:01010E0000F0
:00000001FF
