:03000000020A29C8
:0C0A2900787FE4F6D8FD758165020A7044
:100BF10064697374616E63653A25640D0A00B3AC70
:0B0C0100C9F9B2A8CAB5D1E90D0A007C
:100B95001E2A000000000000000000000000000008
:100BA5000000000000000000000000000000000040
:100BD60053877F75985053890F438920758BFD7510
:0B0BE6008DFDC2ABD28ED2ACD2AF228C
:080BB6007B007A00792A7D1E04
:100BBE00ED601412050DF5993099FDC29974012955
:080BCE00F9E43AFA1D80E92266
:100C0C007C64EF4E60131CEC60087D0A1DED60F6F1
:090C1C0080FAEF1F70EC1E80E964
:010C250022AC
:100AB500AF8CEFFEAD8A7C00E42DF525EC3EF524E8
:100AC500E4F58CF58AAC24AD251201197B7B7A14EB
:100AD500792E783E12000E1201528F298E288D270D
:100AE5008C26E47FA07E0FFDFCAB29AA28A927A8A8
:100AF50026C31205735008E523640145227006E4F8
:100B0500F522F52322754DFF754E0B754FF185299D
:100B1500538528528527518526507B007A00792AEE
:070B2500120616120BB622A6
:0F0C4000438901E4F58CF58AD2AFD2A9C28C2288
:03000B00020003ED
:070003007522007523013294
:100C2600D2A100000000000000000000000000004B
:0A0C360000000000000000C2A1222F
:100B2C00120BD6120C40C2A1754DFF754E0B754FB2
:100B3C00FF8529538528528527518526507B007ABD
:100B4C0000792A120616120BB6120C2630A0FDD212
:100B5C008C20A0FDC28C120AB57F507E00120C0CAA
:020B6C0080E720
:10000E00EC4D6011E8497017ED33EC3304600DE4EC
:10001E00FCFFFEFD22E933E8330470F80201BE1244
:10002E00018958046009E4CC248150062850090245
:10003E0001C82840030201C5C0E0EB4A7044B980F4
:10004E0006D0E0FB0201B4EF4E701CBD8008EBFF42
:10005E00EAFEE9FD80EBE98DF0A4FEE5F00200F783
:10006E00E9CDF9EAFEEBFFEF89F0A4FCE5F0CE89CD
:10007E00F0A42EFFE435F0CD89F0A42DFEE435F08A
:10008E008067EF4E7005BD80D780C3EF8BF0A4ACB8
:10009E00F0EE8BF0A42CFCE435F0F8EF8AF0A42CF3
:1000AE00E5F038FCE433CB8DF0A42CFCE5F03BF806
:1000BE00EE8AF0A42CFCE5F038F8E433CF89F0A4F6
:1000CE002CFCE5F038CF3400CE89F0A42FFFE5F0FC
:1000DE003EFEE433C98DF0A42EFEE5F039CD8AF054
:1000EE00A42FFFE5F03EFEE43DFD33D0E0FB5007CC
:1000FE000BBB000F0201C8EC2CFCEF33FFEE33FEFE
:06010E00ED33FD0201A02B
:1001140075F020800E75F010800575F0087D007E66
:10012400007F003392D530D503120565EC334010BF
:10013400EF33FFEE33FEED33FDEC33FCD5F0ED226F
:0E014400E5F0247EA2D513CC92E7CDCEFF22AB
:10015200EDD2E7CD33EC3392D524814006E4FFFEA5
:10016200FDFC22FCE4CFCECDCC24E0501174FF8004
:10017200EDC3CC13CCCD13CDCE13CECF13CF0470A1
:07018200F030D5DE02056537
:1005BA00E561244DF8E6056122784A300702784D54
:1005CA00E475F00112058402050D2000EB7F2ED29E
:1005DA00008018EF540F2490D43440D4FF30040B19
:1005EA00EF24BFB41A0050032461FFE562600215CC
:1005FA00620565E5657002056430070D784AE475A1
:10060A00F001120584EF020553020B6E7403D20740
:10061A008003E4C207F5618B4A8A4B894CE4F56290
:10062A00F564F565E56260077F201205F580F575CA
:10063A0063FFC201C200C202C203C205C206C208E7
:10064A001205C3FF700D3007057F00120606AF655D
:10065A00AE6422B4255FC2D5C2041205C3FF24D0FA
:10066A00B40A00501A75F00A786230D50508B6FF48
:10067A000106C6A426F620D5047002D20380D92426
:10068A00CFB41A00EF5004C2E5D2040208F3D20133
:10069A0080C6D20080C0D20280BCD2D580BAD20530
:1006AA0080B47F201205F52002077401B56200406C
:1006BA00F11205BAFF1205F502062ED208D20680FB
:1006CA00951205BAFB1205BAFA1205BAF94A4B7025
:1006DA000679EA7A097BFF20022EE562602A7E000B
:1006EA008E8275830012052660060EEE656370F031
:1006FA00C2D5EBC0E0EAC0E0E9C0E0EE120953D08F
:10070A00E0F9D0E0FAD0E0FB12050DFF60AAEBC0D9
:10071A00E0EAC0E0E9C0E01205F5D0E02401F9D032
:10072A00E03400FAD0E0FBE5630460DCD563D980ED
:10073A0087D20280A212093660F7E56370010412BB
:10074A0001D3A963600DE563600914F5631209DD3D
:10075A00EF60F3EA30E702F404C3995077EAF4252C
:10076A00630430E701E404F563800D12093660C1C1
:10077A00EA056325631201D3EA7860F630E701E4FB
:10078A00256304D5630420050114120953E4C0E06B
:10079A001209DD7860E6601320E70714F61205DD1A
:1007AA00802204F6D0E014C0E07F001205DDE56384
:1007BA0060071205D41563800B3005031205D4D0E7
:1007CA00E002062ED0E00480C512093660A0E56377
:1007DA00041201D37860EAF6E56320050260010499
:0507EA00240412095374
:1007EF0074FF04C0E01209DD1205DDE56320050288
:1007FF0060031205D4D0E0B563E87F451205E778B2
:10080F0060E67F2B30E7047F2DF404C0E01205F57E
:10081F00D0E075F00A84C0F01205DED0E01205DEDC
:10082F0002062E791080027908C206C2088008D20B
:10083F00D5790A8004790AC2D5E563047002F5639D
:10084F00E4FAFDFEFF1205BAFC7B08200113120526
:10085F00BAFD7B1030000A1205BAFE1205BAFF7BF3
:10086F0020EC3382D592D55013C3E43000069FFF9E
:10087F00E49EFEE42001039DFDE49CFCE4CBF8C262
:10088F0001EC700CCFCECDCCE824F8F870F38017C4
:10089F00C3EF33FFEE33FEED33FDEC33FCEB33FBF5
:1008AF00994002FB0FD8E9EB300105F8D0E0C448BE
:1008BF00B201C0E00AEC4D4E4F78207B0070C2EAC7
:1008CF00B5630040BCC0E0120955D0F0D0E0200164
:1008DF0004C4C0E0C4B201C0F01205DED0F0D5F000
:1008EF00EB02062E12059406CB53083258069C4C89
:1008FF0006984208364F083E44083E4906B1430861
:10090F00445507754607D345073F470A0A5006A0C7
:10091F002D06A42E06C72B06A82306C52009F32AE9
:10092F00066048000006BFE563B4FF037563061257
:10093F0005BAFC1205BAFD1205BAFE1205BAFF7808
:10094F0059020202790AA2D5200314300509B91001
:10095F00020404B9080104A2D520060250010420A4
:10096F0002689202B562005034C0E07F2030031954
:10097F007F30A20272067205500F1209ACC202C27A
:10098F0006C205C2087F30800F300503E9C0E012B0
:10099F0005F5300503D0E0F9D0E0B562CC3005178E
:1009AF007F30B9100C1205F57F583004077F78801F
:1009BF0003B908031205F53002057F2D0205F57FF7
:1009CF00202008F87F2B2006F322920280CF7F0091
:1009DF00B4070050052459F8E6FF22286E756C6C99
:1009EF002900D2011205BA3001F8C201786230D560
:1009FF000108F60206602D504349581205BA240328
:100A0F00B405004001E4900A05931205E6743A120A
:0A0A1F0005E6D203756204020832F6
:10018900E9D2E7C933E833F892D5EDD2E7CD33ECBC
:0701990033FC5002B2D52235
:1001A000EC30E7100FBF000C0EBE00080DBD0004C0
:1001B0000BEB6014A2D5EB13FCED92E7FD2274FF6C
:1001C000FCFDFEFF22E480F8A2D574FF13FC7D80C5
:0301D000E480EFD9
:1001D300F920E72824F950037907E4F42402FB18F3
:1001E300DBFDE624FB5014E9600DE4F618E604F6A3
:0F01F300B40A08E4F6D9F57401F60A22C2D5223F
:10020200ED33EC3392D5FA602AB4FF33EDC2E77BCB
:10021200FF60067A027927E4227A02793020D50437
:100222007A02792B224E614E002B494E46002D490F
:100232004E4600E47A08F608DAFC7B00740722E8EE
:10024200C0E0ECC0E0EDC0E0EEC0E0EFC0E0EA7577
:10025200F010A4CAABF075F04DA42BFBE435F0FC12
:10026200EA2410FAEB34C5FBEC34D9FCEDC2E7FF0B
:1002720075F056A4F42411C5F0F434C58FF0A42A05
:10028200E5F03BE43CF620E7141204CDD0E0FFD0C9
:10029200E0FED0E0FDD0E0FC1204008014F4041271
:1002A20004CDD0E0FFD0E0FED0E0FDD0E0FC1200B3
:1002B2000ED0E0F8E6FAEDD2E7CD33EC332482FB40
:1002C200E4C3CF33CFCE33CECD33CD33DBF37B0795
:1002D20075F00A846004F6081B0AE5F0F6088FF050
:1002E200740AA4FFACF08EF0740AA42CFEACF05099
:1002F200010C8DF0740AA42CFDE435F0F608DBDE67
:030302007407225B
:100305000201BEE86480F8E933E83360110460F067
:10031500ED33EC337009E8FCE9FDEAFEEBFF22045E
:1003250060DED3EB9FEA9EE99DE8C2E78CF0C2F759
:1003350095F0400CE8CCF8E9CDF9EACEFAEBCFFB25
:1003450012018985D0F05804700320D5B3E80470F4
:10035500075002B2D50201C892D5EC0460F7E4CC8F
:10036500C0E0C398F8603B94186008400DD0E0FBEE
:100375000201A0E4FBFAC9FC8028E830E406E4C9E0
:10038500FBE4CAFCE830E305E4C9CACBFCE8540742
:100395006010F8C3E913F9EA13FAEB13FBEC13FC4D
:1003A500D8F130F52FC3E49CFCEF9BFFEE9AFEEDF0
:1003B50099FDD0E0FBEF4E4D4C701222DB0302019C
:1003C500C5EC2CFCEF33FFEE33FEED33FDED30E7EE
:1003D500EB0201A0EF2BFFEE3AFEED39FDD0E0FB7D
:1003E50050130BBB00030201C8ED13FDEE13FEEF26
:0803F50013FFEC13FC0201A050
:1003FD000201C8EC5D046005E8590470030201BEFA
:10040D00120189580460F6EC4860F2EC7004FDFEB0
:10041D00FF22C860DB2481C85009C39860025006D2
:10042D000201C59850CAF582E9294B4A7005AB8285
:10043D000201B475F0007C1A7880C3EF9BEE9AED43
:10044D0099400DC3EF9BFFEE9AFEED99FDE842F04A
:10045D00DC23ACF0D0E0FFD0E0FED0E0FDAB82209D
:10046D00E7101BEB60BAEC2CFCEF33FFEE33FEED27
:10047D0033FD0201A0E803F830E705C0F075F00088
:10048D00EF2FFFEE33FEED33FD40B830E7C280AA0B
:10049D003F8000004120000042C80000447A000067
:1004AD00461C400047C35000497424004B189680E9
:1004BD004CBEBC205A0E1BCA6753C21C749DC5AEE0
:1004CD00FB60065407601C23231204FBEB543860B9
:1004DD00091204E71204F612000EECF8EDF9EEFA2B
:1004ED00EFCB22EB1204F680F1543803241C900458
:1004FD009DFE93FC0EEE93FD0EEE930ECE93FF221A
:100A3500020B2CE493A3F8E493A34003F68001F2A0
:100A450008DFF48029E493A3F85407240CC8C333C2
:100A5500C4540F4420C8834004F456800146F6DF91
:100A6500E4800B0102040810204080900B95E47E81
:100A7500019360BCA3FF543F30E509541FFEE49386
:100A8500A360010ECF54C025E060A840B8E493A34D
:100A9500FAE493A3F8E493A3C8C582C8CAC583CA78
:100AA500F0A3C8C582C8CAC583CADFE9DEE780BE30
:010BB500003F
:10050D00BB010689828A83E0225002E722BBFE02EC
:09051D00E32289828A83E493221F
:10052600BB010CE58229F582E5833AF583E022508A
:1005360006E92582F8E622BBFE06E92582F8E222D4
:0D054600E58229F582E5833AF583E49322EE
:10055300BB010689828A83F0225002F722BBFE0187
:02056300F32281
:0E056500C3E49FFFE49EFEE49DFDE49CFC22A7
:10057300EB9FF5F0EA9E42F0E99D42F0E89C45F0DE
:010583002255
:10058400FAE6FB0808E6F925F0F618E6CA3AF62278
:10059400D083D082F8E4937012740193700DA3A3F6
:1005A40093F8740193F5828883E47374029368600A
:0605B400EFA3A3A380DF0A
:100B6E00EFB40A07740D120B79740A309811A89914
:100B7E00B8130CC2983098FDA899C298B811F630E7
:070B8E0099FDC299F59922BF
:00000001FF
