:10000000020003787FE4F6D8FD75810902004A02F8
:100010000128E493A3F8E493A34003F68001F208D7
:10002000DFF48029E493A3F85407240CC8C333C435
:10003000540F4420C8834004F456800146F6DFE4A0
:10004000800B0102040810204080900130E47E0102
:100050009360BCA3FF543F30E509541FFEE493A313
:1000600060010ECF54C025E060A840B8E493A3FA25
:10007000E493A3F8E493A3C8C582C8CAC583CAF0B1
:10008000A3C8C582C8CAC583CADFE9DEE780BEEF60
:1000900064017004F508F509E5094508702D30B0D4
:1000A0000930B10630B20320B321120116750800E1
:1000B00075090120B0037F012220B1037F022220B5
:1000C000B2037F032220B3147F042230B00E30B17C
:1000D0000B30B20830B305E4F508F5097F0022E4DF
:1000E000FF12008FEFFD7C006401700375A0AAED84
:1000F00064024C700375A055ED64034C700375A049
:1001000078ED64044C700375A0322220B00475A011
:10011000AA2275A055227F127EEBDEFEDFFC22D2E2
:10012000B0D2B1D2B2D2B32212011F1200DF80FBD3
:050130000208000000C0
:00000001FF
