:10000000020003787FE4F6D8FD75810D02004A02F4
:100010000124E493A3F8E493A34003F68001F208DB
:10002000DFF48029E493A3F85407240CC8C333C435
:10003000540F4420C8834004F456800146F6DFE4A0
:10004000800B0102040810204080900113E47E011F
:100050009360BCA3FF543F30E509541FFEE493A313
:1000600060010ECF54C025E060A840B8E493A3FA25
:10007000E493A3F8E493A3C8C582C8CAC583CAF0B1
:10008000A3C8C582C8CAC583CADFE9DEE780BEEF60
:1000900064017004F508F509E5094508703130B0D0
:1000A0000930B10630B20320B32512013C750800B7
:1000B00075090120B004750A012220B104750B01F5
:1000C0002220B204750C012220B315750D012230D7
:1000D000B00E30B10B30B20830B305E4F508F509C5
:1000E00022E4FF12008FE50A6401700575A0AAF5ED
:1000F0000AE50B6401700575A055F50BE50C64016C
:10010000700575A078F50CE50D6401700575A032D9
:10011000F50D22010A00010B00010C00010D000287
:1001200008000000D2B0D2B1D2B2D2B312013180F5
:10013000FB20B00475A0AA2275A055227F127EEB89
:05014000DEFEDFFC22E1
:00000001FF
