:030000000200FEFD
:0C00FE00787FE4F6D8FD75810B02014507
:0801F80002080000020A0000E9
:050003001201E680FE81
:1001E600758901E4F58A758CEEC28DD28CD2A9D2BE
:0201F600AF2236
:03000B0002018A65
:10018A00C0E0C0F0C083C082C0D075D000C000C03B
:0D019A0001C002C003C004C005C006C007BC
:1001A700758A00758CEE0509E50970020508D39478
:1001B70064E50864809480400BE4FF12000E750824
:0401C70000750900B6
:1001CB00D007D006D005D004D003D002D001D00088
:0B01DB00D0D0D082D083D0F0D0E03232
:10000E00050BE50B7002050AD39407E50A6480948C
:10001E00804005E4F50AF50BEFFD7C007054E50B0E
:10002E00450A70028058E50B6401450A7003020010
:10003E00F5E50B6402450A70030200E4E50B640368
:10004E00450A70030200D6E50B6404450A7002806F
:10005E0066E50B6405450A7002804EE50B640645A5
:10006E000A70028036E50B6407450A60030200FD44
:10007E008018ED64014C7077E50B450A7004C29050
:10008E00800AE50B6401450A7009D290C291C292B2
:10009E00D29322E50B6402450A7006D290C291807B
:1000AE001AE50B6403450A7006D290D291800CE5D6
:1000BE000B6404450A7009C290D291C292C2932277
:1000CE00E50B6405450A7006C290D291800CE50BD3
:1000DE006406450A7009C290C291D292C29322E57B
:0F00EE000B6407450A7008C290C291D292D29358
:0100FD0022E0
:10010A00020003E493A3F8E493A34003F68001F208
:10011A0008DFF48029E493A3F85407240CC8C333F6
:10012A00C4540F4420C8834004F456800146F6DFC5
:10013A00E4800B01020408102040809001F8E47E5C
:10014A00019360BCA3FF543F30E509541FFEE493BA
:10015A00A360010ECF54C025E060A840B8E493A381
:10016A00FAE493A3F8E493A3C8C582C8CAC583CAAC
:10017A00F0A3C8C582C8CAC583CADFE9DEE780BE64
:0102000000FD
:00000001FF
