:03000000020A30C1
:0C0A3000787FE4F6D8FD75815F020A773C
:100BF600B3ACC9F9B2A8CAB5D1E9310D0A00646926
:0E0C06007374616E63653A252E32660D0A0026
:100BB1001E420000000000000000000000000000D4
:100BC1000000000000000000000000000000000024
:100C140053877F75985053890F438920758BFD75D1
:0B0C24008DFDC2ABD28EC2ACD2AF225D
:080BD6007B007A0079427D1ECC
:100BDE00ED60141204D6F5993099FDC2997401296D
:080BEE00F9E43AFA1D80E92246
:100C2F007C64EF4E60131CEC60087D0A1DED60F6CE
:090C3F0080FAEF1F70EC1E80E941
:010C48002289
:100B2F00E4F525F524F523F522120003120C141217
:100B3F000C627529FF752A0B752BF67B007A0079ED
:100B4F004212061D120BD6120C49120ABC8F258EAB
:100B5F00248D238C227529FF752A0C752B048F2F5A
:100B6F008E2E8D2D8C2C7B007A00794212061D1251
:0B0B7F000BD67F507E00120C2F80CCA4
:040BD1000208000016
:05000300C2A1D2A02201
:100C4900D2A1000000000000000000000000000028
:090C5900000000000000C2A1220D
:100C62005389F0438901E4F58AF58CD28DC28CD286
:040C7200A9D2AF2232
:03000B00020C766E
:0D0C7600C0E00509E50970020508D0E03274
:100ABC0030A0FDD28C20A0FDC28CAE08AF09E4FCA6
:100ACC00FD7BFF7AFFF9F812052EA804A905AA06EA
:100ADC00AB07AF8CEFFEE4FCFD2BFBEA3EFAED39E5
:100AEC00F9EC38F8AF8AE4FEEB2FFFEE3AFEED3965
:100AFC00FDEC388F0D8E0C8D0BF50AE4F58CF58A18
:100B0C00F508F509AF0DAE0CAD0BAC0A1201147B58
:100B1C00967A43798B783C12000E8F118E108D0FC4
:030B2C008C0E220A
:10000E00EC4D6011E8497017ED33EC3304600DE4EC
:10001E00FCFFFEFD22E933E8330470F8020187127B
:10002E00015258046009E4CC24815006285009027C
:10003E00019128400302018EC0E0EB4A7044B98062
:10004E0006D0E0FB02017DEF4E701CBD8008EBFF79
:10005E00EAFEE9FD80EBE98DF0A4FEE5F00200F783
:10006E00E9CDF9EAFEEBFFEF89F0A4FCE5F0CE89CD
:10007E00F0A42EFFE435F0CD89F0A42DFEE435F08A
:10008E008067EF4E7005BD80D780C3EF8BF0A4ACB8
:10009E00F0EE8BF0A42CFCE435F0F8EF8AF0A42CF3
:1000AE00E5F038FCE433CB8DF0A42CFCE5F03BF806
:1000BE00EE8AF0A42CFCE5F038F8E433CF89F0A4F6
:1000CE002CFCE5F038CF3400CE89F0A42FFFE5F0FC
:1000DE003EFEE433C98DF0A42EFEE5F039CD8AF054
:1000EE00A42FFFE5F03EFEE43DFD33D0E0FB5007CC
:1000FE000BBB000F020191EC2CFCEF33FFEE33FE35
:06010E00ED33FD02016962
:1001140075F020800E75F010800575F0087D007E66
:10012400007F003392D530D50312057DEC334010A7
:10013400EF33FFEE33FEED33FDEC33FCD5F0ED226F
:0E014400E5F0247EA2D513CC92E7CDCEFF22AB
:1005C100E53D2429F8E6053D227826300702782901
:1005D100E475F00112058B0204D62000EB7F2ED2C8
:1005E100008018EF540F2490D43440D4FF30040B12
:1005F100EF24BFB41A0050032461FFE53E600215E9
:100601003E0541E5417002054030070D7826E4754D
:10061100F00112058BEF02051C020B8A7403D2074D
:100621008003E4C207F53D8B268A278928E4F53E3D
:10063100F540F541E53E60077F201205FC80F57528
:100641003FFFC201C200C202C203C205C206C20804
:100651001205CAFF700D3007057F0012060DAF416C
:10066100AE4022B4255FC2D5C2041205CAFF24D010
:10067100B40A00501A75F00A783E30D50508B6FF65
:100681000106C6A426F620D5047002D20380D9241F
:10069100CFB41A00EF5004C2E5D2040208FAD20125
:1006A10080C6D20080C0D20280BCD2D580BAD20529
:1006B10080B47F201205FC2002077401B53E004082
:1006C100F11205C1FF1205FC020635D208D20680DF
:1006D100951205C1FB1205C1FA1205C1F94A4B7009
:1006E1000679F17A097BFF20022EE53E602A7E0021
:1006F1008E827583001204EF60060EEE653F70F086
:10070100C2D5EBC0E0EAC0E0E9C0E0EE12095AD080
:10071100E0F9D0E0FAD0E0FB1204D6FF60AAEBC00A
:10072100E0EAC0E0E9C0E01205FCD0E02401F9D024
:10073100E03400FAD0E0FBE53F0460DCD53FD9802E
:1007410087D20280A212093D60F7E53F70010412D1
:10075100019CA93F600DE53F600914F53F1209E4D2
:10076100EF60F3EA30E702F404C3995077EAF42525
:100771003F0430E701E404F53F800D12093D60C1FB
:10078100EA053F253F12019CEA783CF630E701E497
:10079100253F04D53F042005011412095AE4C0E0A5
:1007A1001209E4783CE6601320E70714F61205E429
:1007B100802204F6D0E014C0E07F001205E4E53F9A
:1007C10060071205DB153F800B3005031205DBD0F6
:1007D100E0020635D0E00480C512093D60A0E53F86
:1007E1000412019C783CEAF6E53F20050260010411
:0507F100240412095A66
:1007F60074FF04C0E01209E41205E4E53F20050297
:1008060060031205DBD0E0B53FE87F451205EE78C0
:100816003CE67F2B30E7047F2DF404C0E01205FC94
:10082600D0E075F00A84C0F01205E5D0E01205E5C7
:10083600020635791080027908C206C2088008D2FD
:10084600D5790A8004790AC2D5E53F047002F53FDE
:10085600E4FAFDFEFF1205C1FC7B08200113120518
:10086600C1FD7B1030000A1205C1FE1205C1FF7BD7
:1008760020EC3382D592D55013C3E43000069FFF97
:10088600E49EFEE42001039DFDE49CFCE4CBF8C25B
:1008960001EC700CCFCECDCCE824F8F870F38017BD
:1008A600C3EF33FFEE33FEED33FDEC33FCEB33FBEE
:1008B600994002FB0FD8E9EB300105F8D0E0C448B7
:1008C600B201C0E00AEC4D4E4F78207B0070C2EAC0
:1008D600B53F0040BCC0E012095CD0F0D0E020017A
:1008E60004C4C0E0C4B201C0F01205E5D0F0D5F0F2
:1008F600EB02063512059B06D25308395806A34C5F
:10090600069F42083D4F08454408454906B8430836
:100916004B55077C4607DA450746470A115006A796
:100926002D06AB2E06CE2B06AF2306CC2009FA2ABF
:10093600066748000006C6E53FB4FF03753F06128A
:1009460005C1FC1205C1FD1205C1FE1205C1FF78E5
:10095600350201CB790AA2D5200314300509B91056
:10096600020404B9080104A2D5200602500104209D
:1009760002689202B53E005034C0E07F2030031971
:100986007F30A20272067205500F1209B3C202C26C
:1009960006C205C2087F30800F300503E9C0E012A9
:1009A60005FC300503D0E0F9D0E0B53ECC300517A4
:1009B6007F30B9100C1205FC7F583004077F788011
:1009C60003B908031205FC3002057F2D0205FC7FE2
:1009D600202008F87F2B2006F322920280CF7F008A
:1009E600B4070050052435F8E6FF22286E756C6CB6
:1009F6002900D2011205C13001F8C201783E30D576
:100A06000108F60206672D504349581205C1240312
:100A1600B405004001E4900A0C931205ED743A12F5
:0A0A260005EDD203753E0402083905
:10015200E9D2E7C933E833F892D5EDD2E7CD33ECF3
:0701620033FC5002B2D5226C
:10016900EC30E7100FBF000C0EBE00080DBD0004F7
:100179000BEB6014A2D5EB13FCED92E7FD2274FFA3
:10018900FCFDFEFF22E480F8A2D574FF13FC7D80FC
:03019900E480EF10
:10019C00F920E72824F950037907E4F42402FB182A
:1001AC00DBFDE624FB5014E9600DE4F618E604F6DA
:0F01BC00B40A08E4F6D9F57401F60A22C2D52276
:1001CB00ED33EC3392D5FA602AB4FF33EDC2E77B03
:1001DB00FF60067A0179F0E4227A0179F920D504DF
:1001EB007A0179F4224E614E002B494E46002D497F
:1001FB004E4600E47A08F608DAFC7B00740722E826
:10020B00C0E0ECC0E0EDC0E0EEC0E0EFC0E0EA75AE
:10021B00F010A4CAABF075F04DA42BFBE435F0FC49
:10022B00EA2410FAEB34C5FBEC34D9FCEDC2E7FF42
:10023B0075F056A4F42411C5F0F434C58FF0A42A3C
:10024B00E5F03BE43CF620E714120496D0E0FFD037
:10025B00E0FED0E0FDD0E0FC1203C98014F40412E0
:10026B000496D0E0FFD0E0FED0E0FDD0E0FC120021
:10027B000ED0E0F8E6FAEDD2E7CD33EC332482FB77
:10028B00E4C3CF33CFCE33CECD33CD33DBF37B07CC
:10029B0075F00A846004F6081B0AE5F0F6088FF087
:1002AB00740AA4FFACF08EF0740AA42CFEACF050D0
:1002BB00010C8DF0740AA42CFDE435F0F608DBDE9E
:0302CB0074072293
:1002CE00020187E86480F8E933E83360110460F0D6
:1002DE00ED33EC337009E8FCE9FDEAFEEBFF220496
:1002EE0060DED3EB9FEA9EE99DE8C2E78CF0C2F791
:1002FE0095F0400CE8CCF8E9CDF9EACEFAEBCFFB5D
:10030E0012015285D0F05804700320D5B3E8047062
:10031E00075002B2D502019192D5EC0460F7E4CCFD
:10032E00C0E0C398F8603B94186008400DD0E0FB25
:10033E00020169E4FBFAC9FC8028E830E406E4C94E
:10034E00FBE4CAFCE830E305E4C9CACBFCE8540779
:10035E006010F8C3E913F9EA13FAEB13FBEC13FC84
:10036E00D8F130F52FC3E49CFCEF9BFFEE9AFEED27
:10037E0099FDD0E0FBEF4E4D4C701222DB030201D3
:10038E008EEC2CFCEF33FFEE33FEED33FDED30E75C
:10039E00EB020169EF2BFFEE3AFEED39FDD0E0FBEB
:1003AE0050130BBB0003020191ED13FDEE13FEEF94
:0803BE0013FFEC13FC020169BE
:1003C600020191EC5D046005E8590470030201879F
:1003D600120152580460F6EC4860F2EC7004FDFE1F
:1003E600FF22C860DB2481C85009C398600250060A
:1003F60002018E9850CAF582E9294B4A7005AB82F4
:1004060002017D75F0007C1A7880C3EF9BEE9AEDB1
:1004160099400DC3EF9BFFEE9AFEED99FDE842F081
:10042600DC23ACF0D0E0FFD0E0FED0E0FDAB8220D4
:10043600E7101BEB60BAEC2CFCEF33FFEE33FEED5E
:1004460033FD020169E803F830E705C0F075F000F6
:10045600EF2FFFEE33FEED33FD40B830E7C280AA42
:100466003F8000004120000042C80000447A00009E
:10047600461C400047C35000497424004B18968020
:100486004CBEBC205A0E1BCA6753C21C749DC5AE17
:10049600FB60065407601C23231204C4EB54386027
:1004A600091204B01204BF12000EECF8EDF9EEFAD0
:1004B600EFCB22EB1204BF80F1543803241C9004C6
:1004C60066FE93FC0EEE93FD0EEE930ECE93FF2288
:100A3C00020B2FE493A3F8E493A34003F68001F296
:100A4C0008DFF48029E493A3F85407240CC8C333BB
:100A5C00C4540F4420C8834004F456800146F6DF8A
:100A6C00E4800B0102040810204080900BB1E47E5E
:100A7C00019360BCA3FF543F30E509541FFEE4937F
:100A8C00A360010ECF54C025E060A840B8E493A346
:100A9C00FAE493A3F8E493A3C8C582C8CAC583CA71
:100AAC00F0A3C8C582C8CAC583CADFE9DEE780BE29
:010BD500001F
:1004D600BB010689828A83E0225002E722BBFE0224
:0904E600E32289828A83E4932257
:1004EF00BB010CE58229F582E5833AF583E02250C2
:1004FF0006E92582F8E622BBFE06E92582F8E2220C
:0D050F00E58229F582E5833AF583E4932225
:10051C00BB010689828A83F0225002F722BBFE01BE
:02052C00F322B8
:10052E00E88FF0A4CC8BF0A42CFCE98EF0A42CFC6C
:10053E008AF0EDA42CFCEA8EF0A4CDA8F08BF0A4EA
:10054E002DCC3825F0FDE98FF0A42CCD35F0FCEB49
:10055E008EF0A4FEA9F0EB8FF0A4CFC5F02ECD390E
:0F056E00FEE43CFCEAA42DCE35F0FDE43CFC227B
:0E057D00C3E49FFFE49EFEE49DFDE49CFC228F
:10058B00FAE6FB0808E6F925F0F618E6CA3AF62271
:10059B00D083D082F8E4937012740193700DA3A3EF
:1005AB0093F8740193F5828883E473740293686003
:0605BB00EFA3A3A380DF03
:100B8A00EFB40A07740D120B95740A309811A899DC
:100B9A00B8130CC2983098FDA899C298B811F630CB
:070BAA0099FDC299F59922A3
:00000001FF
