:030000000200DE1D
:0C00DE00787FE4F6D8FD75810F02012543
:0401EE00020C0000FF
:050003001201DC80FE8B
:1001DC00758901E4F58A758CEEC28DD28CD2A9D2C8
:0201EC00AF2240
:03000B0002016A85
:10016A00C0E0C0F0C083C082C0D075D000C000C05B
:0D017A0001C002C003C004C005C006C007DC
:10018700758A00758CEE050DE50D7002050CD3948C
:1001970064E50C64809480400BE4FF12000E750C3C
:0401A70000750D00D2
:1001AB00D007D006D005D004D003D002D001D000A8
:0B01BB00D0D0D082D083D0F0D0E03252
:0401F200020E0000F9
:1001C600EF24FF9290ED24FF9291EB24FF9292E5AB
:0601D6000B24FF929322AE
:10000E00050FE50F7002050ED39407E50E6480947C
:10001E00804005E4F50EF50FEF7040E50E703AE501
:10002E000FB40800503390003BF828287302005399
:10003E0002005502005702005902005B02006102E5
:10004E000063020065807E80728067805BE4F50B42
:10005E00FB805A8042803B8033806AEF6401706F70
:10006E00E50E7061E50FB40800505A900080F82834
:10007E00287302009802009A0200A00200A5020056
:10008E00AD0200B60200C00200C98039750B01E452
:10009E008010E4F50B800BE4F50BFB7D018005E48D
:1000AE00F50BFBFD7F018024E4F50B7B017D01FF49
:1000BE00801AE4F50B7B01FDFF8011750B017B01AE
:0F00CE00E4FDFF8007750B01E4FBFDFF1201C687
:0100DD002200
:1000EA00020003E493A3F8E493A34003F68001F229
:1000FA0008DFF48029E493A3F85407240CC8C33317
:10010A00C4540F4420C8834004F456800146F6DFE5
:10011A00E4800B01020408102040809001EEE47E86
:10012A00019360BCA3FF543F30E509541FFEE493DA
:10013A00A360010ECF54C025E060A840B8E493A3A1
:10014A00FAE493A3F8E493A3C8C582C8CAC583CACC
:10015A00F0A3C8C582C8CAC583CADFE9DEE780BE84
:0101F6000008
:00000001FF
